:100000000C942A000C9434000C9434000C943400AA
:100010000C9434000C9434000C9434000C94340090
:100020000C9434000C9434000C9434000C94340080
:100030000C9434000C9434000C9434000C94340070
:100040000C9434000C9434000C9434000C94340060
:100050000C94340011241FBECFE5D4E0DEBFCDBF29
:100060000E949B000C94FF000C9400008BBB88B393
:100070008B7F88BB88B38D7F88BB88B3816088BB4A
:100080008FE19EE40197F1F700C0000088B38E7FF6
:1000900088BB089588E30E9436008FEC97E00197B3
:1000A000F1F700C0000082E00E9436008FEC97E07C
:1000B0000197F1F700C0000081E00E9436008FEC4C
:1000C00097E00197F1F700C0000086E00E9436003B
:1000D0008FEC97E00197F1F700C0000080E80E94E4
:1000E00036008FEC97E00197F1F700C0000008950B
:1000F0008BBB88B3846088BB88B38D7F88BB88B393
:10010000816088BB8FE19EE40197F1F700C0000099
:1001100088B38E7F88BB0895882321F0813021F039
:1001200080E003C080E801C080EC603108F4860FF5
:100130000E94360008958FEF8ABB87BB0E944A0059
:100140002FEF80E792E0215080409040E1F700C01F
:1001500000008CE00E94360064E080E00E948C0089
:1001600087E50E9478008FEC97E00197F1F700C0D7
:10017000000085E40E9478008FEC97E00197F1F78A
:1001800000C000008CE40E9478008FEC97E001979B
:10019000F1F700C0000083E40E9478008FEC97E044
:1001A0000197F1F700C000008FE40E9478008FEC07
:1001B00097E00197F1F700C000008DE40E947800FD
:1001C0008FEC97E00197F1F700C0000085E40E94F2
:1001D00078008FEC97E00197F1F700C000008CE009
:1001E0000E9436009FEF23ED80E391502040804035
:1001F000E1F700C0000081E00E943600B1CFF89422
:02020000FFCF2E
:00000001FF
